:020000040800F2
:1000000048E90420090300083F6C0008E7310008B4
:10001000816B0008ED0B000811A200080000000031
:10002000000000000000000000000000119B00081C
:10003000F90D000800000000910B0008999B0008D2
:100040004303000843030008430300084303000878
:100050004303000843030008430300084303000868
:100060004303000843030008430300084303000858
:100070004303000843030008430300084303000848
:100080004303000843030008430300084303000838
:100090004303000843030008430300084303000828
:1000A0004303000843030008430300084303000818
:1000B0004303000843030008119C000843030008A1
:1000C00043030008430300084303000843030008F8
:1000D00043030008C1A100084303000843030008CC
:1000E00043030008430300084303000843030008D8
:1000F00043030008430300084303000843030008C8
:1001000043030008430300084303000843030008B7
:1001100043030008430300084303000843030008A7
:100120004303000843030008430300084303000897
:1001300043030008490E0008430300084303000876
:100140004303000843030008430300084303000877
:100150004303000843030008430300084303000867
:100160004303000843030008430300084303000857
:100170004303000843030008430300080000000095
:100180004303000843030008430300084303000837
:100190004303000843030008430300084303000827
:1001A0004303000843030008430300084303000817
:1001B0004303000843030008430300084303000807
:1001C0004303000843030008000000004303000845
:1001D00043030008430300084303000843030008E7
:1001E00043030008430300084303000843030008D7
:1001F000430300084303000800F002F800F06DF824
:100200000AA090E8000C82448344AAF10107DA4571
:1002100001D100F062F8AFF2090EBAE80F0013F056
:10022000010F18BFFB1A43F001031847CCBF0100B0
:10023000ECBF01000A444FF0000C10F8013B13F032
:10024000070408BF10F8014B1D1108BF10F8015B2F
:10025000641E05D010F8016B641E01F8016BF9D122
:1002600013F0080F1EBF10F8014BAD1C0C1B09D179
:100270006D1E58BF01F801CBFAD505E014F8016BEB
:1002800001F8016B6D1EF9D59142D6D3704700007D
:100290000023002400250026103A28BF78C1FBD88F
:1002A000520728BF30C148BF0B607047642900F077
:1002B000ED80752900F0EA80782900F02381632918
:1002C00000F0B383732900F0B883002070471FB596
:1002D00017F02EF81FBD10B510BD00F0CDFB114674
:1002E000FFF7F5FF0EF0D6F900F0EBFB03B4FFF7D4
:1002F000F2FF03BC09F094FF30BF72B6704762B6DC
:10030000704780F30888704711488047DFF8440041
:10031000016841F470010160BFF34F8FDFF83800CE
:10032000016821F040410160BFF36F8F0B48004727
:10033000FEE7FEE7FEE7FEE7FEE7FEE7FEE7FEE795
:10034000FEE7FEE706480749074A084B70470000EA
:10035000BD9B000888ED00E034EF00E0F9010008E3
:1003600048E3042048E9042048E5042048E5042047
:1003700072B6704762B67047EFF3108072B670477E
:1003800080F31088704730BF704720BF7047B0FAC5
:1003900080F0704790FAA0F0B0FA80F0704790FAC1
:1003A000A0F07047704700000FB4044910B503AACD
:1003B000029800F047FB10BC5DF814FB140002200B
:1003C0000FB41CB5084B06AA7B44694600900598FB
:1003D00000F009FB04460020694600F017FB2046A8
:1003E0001CBC5DF814FB00004106000070B504461B
:1003F00085690068C10601D5302600E02026C007C7
:1004000007D070BDD4E9012130469047206A401CD6
:1004100020626D1EF6D570BD70B504468569007802
:10042000C00707D170BDD4E9012120209047206A80
:10043000401C20626D1EF6D570BD70B50C46054699
:10044000012A05D02878800600D5EA69002302E059
:10045000012305E05B1C934202D2E05C0028F9D145
:10046000A869E618C01AA861286A184428622846B4
:10047000FFF7BCFF04E0D5E9012114F8010B904718
:10048000B442F8D32846FFF7C7FF70BD2DE9F0410D
:100490000646002410687529314616A510D0AFF322
:1004A0000080002802DA404213A507E031688A077D
:1004B00001D512A502E0490704D511A5012401E0E8
:1004C000AFF3008000210A2206F1240709E0B0FB07
:1004D000F2FCB0FBF2F302FB1C00303078541846FB
:1004E000491C0028F3D123462A463046BDE8F04196
:1004F00000F01ABA000000002D0000002B000000E0
:100500002000000070B504460D4621461068AFF388
:1005100000802188090502D50F4A7A4402E00E4A7C
:100520007A440E32002104F1240305E000F00F06A6
:100530000009965D5E54491C0028F7D120780023FD
:10054000000704D5702D02D009B1022311322046D4
:10055000BDE8704000F0E8B99EB601002DE9F05FFB
:10056000894604464FF0000ADFF874B1FB44C0F836
:1005700020A02046E1688847002874D0252806D0AE
:10058000D4E901219047206A401C2062F1E700264F
:100590005F462046E16888472028054607DB312D65
:1005A00005D2781910F8200C08B10643F1E7B0071E
:1005B00001D526F00406C4F81CA00027C4F818A032
:1005C0002A2D09D0284609F024FE38B304EB870809
:1005D000303DC8F8185019E059F8041B204604EBC8
:1005E00087029161E1688847012F054618D1E069CB
:1005F000002820DA26F020061DE0D8F8180000EBCD
:10060000800005EB40003038C8F818002046E1684B
:100610008847054609F0FDFD0028EED1012F0AD0DC
:100620002E2D08D12046E16888477F1C0546022F01
:1006300046F02006C4DBA069002803DA404246F0F9
:100640000106A061F00701D026F010066C2D0BD03A
:10065000682D09D04C2D39D06A2D35D0742D35D068
:100660007A2D33D016E038E0E1682F4620468847DF
:10067000B842054609D16C2F26D04FF48060E1685E
:10068000064320468847054604E06C2F1AD04FF4F5
:10069000807006430DB3A5F14100192802D820351A
:1006A00046F400664A462946204626604E46FFF735
:1006B000FDFD80B101280BD0F61D26F0070000F1EA
:1006C000080956E74020E4E78020D8E70020D6E775
:1006D00006F104094DE7284652E7206ABDE8F09F7D
:1006E00074B6010040EA010310B59B070FD1042A3C
:1006F0000DD310C808C9121F9C42F8D020BA19BAED
:10070000884201D9012010BD4FF0FF3010BD1AB151
:10071000D30703D0521C07E0002010BD10F8013BA6
:1007200011F8014B1B1B07D110F8013B11F8014BCD
:100730001B1B01D1921EF1D1184610BD10B5431CF0
:1007400002E010F8011B71B18107FAD14FF00132BC
:1007500002C88C1A8C4314EAC211F9D0C01A0A06D6
:1007600003D0C01E10BDC01A10BD0A0401D0801EE7
:1007700010BD0902FCD0401E10BD032A40F230809B
:1007800010F0030C00F0158011F8013BBCF1020FD2
:10079000624498BF11F801CB00F8013B38BF11F853
:1007A000013BA2F1040298BF00F801CB38BF00F86A
:1007B000013B11F0030300F02580083AC0F00880E7
:1007C00051F8043B083A51F804CBA0E80810F5E7CB
:1007D000121D5CBF51F8043B40F8043BAFF30080AE
:1007E000D20724BF11F8013B11F801CB48BF11F823
:1007F000012B24BF00F8013B00F801CB48BF00F8F3
:10080000012B704710B5203AC0F00B80B1E81850AA
:10081000203AA0E81850B1E81850A0E81850BFF4EA
:10082000F5AF5FEA027C24BFB1E81850A0E8185089
:1008300044BF18C918C0BDE810405FEA827C24BFDD
:1008400051F8043B40F8043B08BF7047D20728BF6B
:1008500031F8023B48BF11F8012B28BF20F8023BBA
:1008600048BF00F8012B70474FF0000200B5134657
:1008700094469646203922BFA0E80C50A0E80C50C0
:10088000B1F12001BFF4F7AF090728BFA0E80C5071
:1008900048BF0CC05DF804EB890028BF40F8042B6A
:1008A00008BF704748BF20F8022B11F0804F18BFD7
:1008B00000F8012B704700004FF0013C50F8042B6A
:1008C00051F8043B9A4215D1A2EB0C03934313EA6F
:1008D000CC130BD150F8042B51F8043B9A4209D1A8
:1008E000A2EB0C03934313EACC13E7D04FF00000C4
:1008F000704700BFD01A01BAB1FA81F101F01801B6
:1009000022FA01F0CB40C1F12001DBB2C0B2C01A23
:100910002CFA01F3D11A914311EAC311E6D17047C1
:1009200070477047704770472DE9F0470D4699466C
:100930009246044600F124080168880604D5E0695F
:1009400021F01001216000E00120A84201DD471BD9
:1009500000E00027A1697A1902EB0900081AA061DA
:100960002078C00602D42046FFF740FD002608E0AC
:10097000D4E901211AF806009047206A401C761C31
:1009800020624E45F4DB2078C0060AD52046FFF7EA
:100990002DFD06E0D4E9012130209047206A401C5B
:1009A0002062381EA7F10107F4DC07E0D4E9012139
:1009B00018F805009047206A401C2062281EA5F107
:1009C0000105F3DC2046FFF727FD2078000602D55D
:1009D0000220BDE8F0870120FBE7000001694A1C06
:1009E00002610878704700B58FB0CDE90131002170
:1009F000059105497944CDE9031011466846FFF792
:100A0000ADFD0FB000BD0000E5FFFFFF0A6802F872
:100A1000010B0A60704710B5436913B1AFF3008052
:100A200001E0FFF70AFD012010BD127800F124015A
:100A30000A7000224A700122EDE711684FF0FF3280
:100A4000E9E70000074B70B50D467B44FFF7CBFF8D
:100A50000446284600F00CF810B14FF0FF3070BD8E
:100A6000204670BD33C5000000487047E4E2042012
:100A7000007B00F0800070477546FFF7F5FFAE463B
:100A800005006946534620F00700854618B020B59A
:100A9000FFF758FCBDE820404FF000064FF000077C
:100AA0004FF000084FF0000B21F00701AC46ACE816
:100AB000C009ACE8C009ACE8C009ACE8C0098D4683
:100AC000704710B50446AFF300802046BDE81040E3
:100AD000FFF70CBCEFF3098141B1F1EE101A40F8B9
:100AE000041D20ED200A3E490A6810607047B0ECF2
:100AF000200A02C8E1EE101A3A490A6810607047ED
:100B000072B64EF62250CEF2000040F2FF01C0F263
:100B1000000101704FF0000080F3098807F088FAA7
:100B200040F2CC30C2F20200016881F3088840F242
:100B30005630C2F2020040F25731C2F202010A7886
:100B4000027040F2C435C2F2020540F2C831C2F26E
:100B500002010A682A60106880F30988EFF31480A4
:100B600040F0020080F31488BFF36F8FBDE8F00FF0
:100B70000FBCBDE8005006BC62B608471A484FF0EB
:100B800080510160704718484FF0805101607047F4
:100B900072B6EFF3098020E9F00F40F2C435C2F2DB
:100BA00002052E683060744607F042FA40F2563073
:100BB000C2F2020040F25731C2F202010A7802701A
:100BC00040F2C831C2F202010A682A6044F0F40E11
:100BD0001068B0E8F00F80F3098862B67047000033
:100BE000C4030220C803022004ED00E0FEE7000079
:100BF0000549002010B5486000F0A6F800F006F89E
:100C0000BDE8104000F086B8F00202202DE9F04166
:100C1000104F002635463E807E80BE60FE607E61BD
:100C2000BE613E61FFF7A8FB002480467E6100F0B4
:100C300049F800F057F8641C786924040544240C32
:100C4000F4D0C7E904564046BE61BDE8F041FFF765
:100C500097BB0000F002022003490969884201D9CC
:100C6000401A704700207047F002022010B5FFF7CD
:100C700083FB04494C69FFF783FB2046BDE8104025
:100C8000FFF7EABFF002022010B5FFF7EFFF0446BE
:100C9000FFF772FB034A00215161FFF771FB204609
:100CA00010BD0000F002022010B5FFF765FB0449FB
:100CB0008C69FFF765FB2046BDE81040FFF7CCBF0D
:100CC000F002022010B5064C2088401C208060886D
:100CD00010B900F051F8A0606088401C608010BD21
:100CE000F002022010B50A4C6088401E0004000C7F
:100CF00060800CD100F040F8E060A168401A6169A2
:100D0000814200D26061A169814200D2A06110BD20
:100D1000F002022010B5FFF72FFB0446FFF7D2FFC9
:100D20000548102105F068FFFFF7DCFF2046BDE80D
:100D30001040FFF725BB000038CD04200149486072
:100D400070470000F002022010B501F037FD08499D
:100D50000A6842F080720A60064900224A600A6806
:100D600042F001020A60BDE81040FFF7E7BF000053
:100D7000FCED00E0001000E0014840687047000012
:100D8000001000E0F0B5BFF34F8FBFF36F8F18492D
:100D900000200860174C216841F400312160BFF346
:100DA0004F8FBFF36F8F134970310860BFF34F8FC0
:100DB000081F006843F6FF750D4E1036C0F34E3124
:100DC000C0F3C90305EA4112184642EA807737604A
:100DD000401EFAD2491EF5D2BFF34F8F206840F46F
:100DE00080302060BFF34F8FBFF36F8FF0BD0000E6
:100DF00050EF00E014ED00E0704738B5044600689D
:100E000000F58050816941F480118161206800F50E
:100E1000805080690090012000F008FA2068009955
:100E200000F58050816138BD02680021002A08DB8E
:100E30000268120405D40268D20502D50068C0F326
:100E40000D4108467047000010B5094C01E00DF057
:100E5000EFFBA06AFFF7E8FF0028F8D120684FF405
:100E6000803100F5805041614021416110BD00009A
:100E7000A01402202DE9F041044621B14FF4006096
:100E8000E060C000A060E0690026002861D035461F
:100E90002068402702683A490A40D4E902131943FE
:100EA000294341F400711143016020680568012065
:100EB00000F0BCF92068056020684760206845683C
:100EC000012000F0B3F92068456020688660206842
:100ED000C660206881694FF64172114041F080017F
:100EE000816120688569012000F0A0F92068856192
:100EF0002068C6612068C569012000F097F9206864
:100F0000C561206800F5805081691E4A11401E4A63
:100F10000A438261206800F580508569012000F055
:100F200085F9206800F5805085612068174900F533
:100F300080500160206800F580500568012000F0B5
:100F400075F9206800F580500560A069012803D07C
:100F500009E04FF480659BE7206800F58050C16987
:100F60000B4A1143C16160690A4A818811640178A2
:100F7000D0F8010041EA00205064BDE8F081000093
:100F80000F8120FF233FDEF8040020028020C102F1
:100F9000400001000080024070B5A02102200EF048
:100FA00085F90A4CA021206002200EF07FF941F65D
:100FB000C4556060022029460EF078F92946A060E9
:100FC00002200EF073F9E060002070BD28000220BE
:100FD00070B5B3F5804F05D06FF0704140F8221026
:100FE000002070BD50F82230084C2340D1E9004564
:100FF0008E8944EA05148D6889692D0245EA064503
:101000002C430C431C4340F82240E9E70000F0CF9A
:10101000F0B50C6850F824501A4A1540D1E9012364
:10102000D1E903671A433E4332434E6932438E6926
:101030003243CE6932430E6A32434E6A32438E6A7D
:101040003243CE6A32430E6B32438E6B32434E6B69
:1010500032432A43082B01D142F0400240F82420B9
:101060000A6BB2F5801F05D10A684AB1026842F4E2
:10107000801202600A681AB10268496B0A43026072
:101080000020F0BD8004C0FF00EB8202F0B5536881
:101090008E8903F04044D1E9003543EA05138D6899
:1010A0002D0245EA06450E8A2B430D4D05EB0656EB
:1010B00033430E7D6F0107EB066633438E6933437E
:1010C000234353600268D20207D54268098A22F49A
:1010D000700205EB0151114341600020F0BD00009A
:1010E0000000F0FF30B5D1E901230D681A43D1E9C2
:1010F000033423431A434B691A438B691A43D1E9DA
:101100000734496A012D056807D01A4322430A4370
:101110006FF30E052A4302600AE025F4F8452343E5
:1011200029430B43416803606FF30E010A43426099
:10113000002030BD426942EA410141610020704710
:10114000F8B514460546D1E900026FF01F031043BD
:101150008A68C96803EB421242EA412108430090C1
:10116000286100F0CDFC064609E0601C07D024B1E0
:1011700000F0C6FC801BA04201D90320F8BDA8697D
:101180008006F2D40020F8BDF0B5D1E900346FF04C
:101190000F055B1E2E0105EB041423438C682F03FF
:1011A0004FEA054C0D8A06EB04248E8A2343CC6853
:1011B000097E4FF07F4E012A07EB05450CEB0656E2
:1011C0000EEB01610CD082683F1107EB043423431E
:1011D0002B4333430B4302F07042134383600FE011
:1011E0008768084A17402203C468A2F58052324338
:1011F0003A4382602B430B4304F070442343C360A3
:101200000020F0BDFF0F0FFF90F83510022903D02A
:101210008021416501207047052180F83510006864
:10122000016821F0010101600020704731B500F034
:1012300067FC044600F064FC0099001B8842F9D367
:1012400038BD2DE9F04390F845500024012D0DD014
:101250004FF0010980F84590022580F844505F1E48
:1012600044F2F45C4FF00048816216E00220BDE8D1
:10127000F08301EB4415C5F80080C4EBC416BC42F2
:1012800006EB460602EB8606C5E901C603D205F168
:101290002006EE6000E0E960641C9C42E9D302682D
:1012A00002F58052D16080F84490002180F845100A
:1012B0000846DCE72DE9F04390F845400025012C75
:1012C0000BD04FF0010C80F845C0022480F8444058
:1012D0005F1EC1624FF480191BE00220BDE8F0835D
:1012E00001EB4514C4F80090C5EBC51606EB4606A5
:1012F00002EB8606A660C6691EB9266846F440065B
:101300002660BD4203D204F12006E66000E0E16001
:101310006D1C9D42E4D3026802F58052116180F891
:1013200044C0002180F845100846D7E710B590F872
:101330004510012913D0012380F84530022180F89F
:101340004410816A0A680024002A28DB0A68D20552
:1013500019D5826B521C8263012A02D002E002205E
:1013600010BD016341630A68C2F30D42121FC263DC
:10137000026B92680264C968816280F8443080F828
:101380004540002010BD0A68920503D58363C0E97B
:101390000C1402E0826B521C8263C968816280F87F
:1013A000443080F84540012010BD00002DE9FC4785
:1013B0004FF000060400B146009603D094F84400B4
:1013C00018B107E00120BDE8FC87204684F845609D
:1013D00000F0E2F86648016841F48041016000686D
:1013E00000F4804001906348016821F4000101602D
:1013F0000168226A11430160206800F5805001688D
:1014000041F00101016000F07BFB4FF4FA770546E3
:1014100008E000F075FB401BB84203D9032084F8B4
:10142000440069E0206800F580500068C007F0D1F2
:101430002068006920F01C0501F0C0F94E494F4AB0
:101440000144914202D245F0080516E04C494D4A4C
:101450000144914202D245F00C050EE04A494B4A44
:101460000144914209D34A4908444A49884202D278
:1014700045F0040501E045F01005206805610021F4
:101480004FF40042204600F003FA0125C0BB40F6AD
:10149000FF773846FFF7CAFE606890B300F030FB74
:1014A000804641F2883701216A46204600F0E6F87E
:1014B00000F026FBA0EB0800B84217D800984007C0
:1014C000F1D5002120464FF4805200F0E1F9B8B97F
:1014D00000F016FB80466A460121204600F0CEF857
:1014E00000F00EFBA0EB0800B8420BD9012120460A
:1014F000FFF7C0FC84F84450032084F8456062E79D
:1015000024E018E000988006E5D51F216A462046B1
:1015100000F0B4F8D0B90098C10603D54FF40061CB
:10152000E16000E0E660400701D5A66018E04FF4F6
:101530008040A06014E0E068A168C00840EA510063
:1015400082B22046002100F0A3F930B101212046EB
:10155000FFF790FC84F8445034E73846FFF766FE06
:1015600049462046FFF786FC84F8445000202AE7CD
:10157000443802400438014000D3CEFEC0E1E4000C
:1015800040F1E9FD40787D0100796CFC005A62026F
:10159000001F0AFA80F0FA02334800B587B00168EC
:1015A00041F000710160016801F00071059101686E
:1015B00041F080610160016801F08061059101687E
:1015C00041F000610160016801F00061059101686E
:1015D00041F001010160016801F00101059101681C
:1015E00041F002010160016801F00201059101680A
:1015F00041F004010160016801F0040105910168F6
:1016000041F0400101600068694600F0400005902B
:101610008620009002200190002002900320039079
:101620000B200490114800F06FF94FF40060009017
:101630000F48694600F068F9322000900D4869466D
:1016400000F062F94FF4C04000900B48694600F08A
:101650005BF9002201213D2000F034FC3D2000F028
:1016600026FC07B000BD00003038024000000240F8
:101670000004024000080240001802402DE9F04733
:10168000044690F84400914682281DD0822084F8B8
:101690004400206802694FF6FF7502F01C03228A9D
:1016A00005EAC2221A434FF4F86303EA8111114399
:1016B00021F0020141F00105056100F021FA012746
:1016C00006464FF4803810E00220BDE8F08700F0B5
:1016D00017FA801B404506D384F84470002084F834
:1016E00045000320F1E720680569E807EFD120688D
:1016F000406981B2C9F8001084F844700020E4E722
:10170000F8B5044690F84500012839D0012584F841
:101710004550022084F8440020680026016841F00A
:10172000080101602068006800902846FFF77EFDF0
:101730002168009808602068016841F00401016098
:101740002068006800900120FFF770FD2168009874
:1017500008602046FFF751FB206800F58050816942
:1017600041F400518161206800F58050816941F0A9
:101770000201816184F84450002084F84560F8BD7E
:101780000220F8BDF0B590F845300022012B12D0B0
:10179000012780F84570022380F84430002561B1AC
:1017A000C46A2368002B0BDA122180F8441080F8F9
:1017B00045500120F0BD0220F0BD80F84470F6E7EE
:1017C00040F2F456B1420BD9B1FBF6FCB1FBF6F393
:1017D00006FB1C1CBCF1000F00D05B1C012B43D18D
:1017E000226842F040522260C26AC1F30C0151608B
:1017F000C16A0A6842F000420A60C16AC968C162EF
:1018000034E0D4F800C02CF0405CC4F800C032B919
:10181000C46AD4F800C04CF0805CC4F800C0C46A4C
:1018200066605C1EA24214D1C46AD4F800C04CF0B9
:10183000005CC4F800C0C3F10104D0F82CC0C4EBB4
:10184000C41404EB440401EB8404C4F30C04CCF88A
:101850000440C46AD4F800C04CF0004CC4F800C086
:10186000C46A521CE468C4629A42CAD3016801F592
:1018700080514A69520705D504224A61016801F581
:1018800080514D6080F8447080F845500020F0BDD4
:101890002DE9F041044690F8440042281ED0422031
:1018A00084F84400206803694FF6FF7603F01C05B6
:1018B000238A06EAC3232B434FF4F86505EA811116
:1018C000194341F0030591B241612068056100F0C0
:1018D00017F9012706464FF4803810E00220BDE8D2
:1018E000F08100F00DF9801B404506D384F8447068
:1018F000002084F845000320F1E720680569E80727
:10190000EFD184F84470EAE72DE9F84FDFF8A091B1
:1019100000224FF00F0809F1040A0AF1040B0BF141
:10192000040E0B68012696403340B34271D14C68D7
:10193000022C01D0122C11D1D40800EB84073D6A8F
:101940005407E40E08FA04FC25EA0C05D1F810C08F
:101950000CFA04FC4CEA050CC7F820C007685400D8
:1019600091F804C00325A5400CF0030CAF430CFA1A
:1019700004FC4CEA070CC0F800C04F68012F05D0EA
:10198000022F03D0112F01D0122F11D18768D1F867
:101990000CC0AF430CFA04FC4CEA070CC0F808C0BA
:1019A0004768B7430E79C6F3001696403E4346603B
:1019B000C668AE438D68A5403543C5604C68E400F9
:1019C0006FD53C4C256845F480452560246822F09D
:1019D000030504F480440094374C2E19D6F8087897
:1019E0009407250F08FA05F4A743344CA04201D10F
:1019F00000242EE0324CA04201D1012429E0314CD8
:101A0000A04201D1022424E02F4CA04202D10324A1
:101A10001FE046E02D4CA04201D1042419E02C4CDB
:101A2000A04201D1052414E02A4CA04201D1062491
:101A30000FE0294CA04201D107240AE0274CA04224
:101A400001D1082405E0264CA04201D1092400E080
:101A50000A24AC403C43C6F80848D9F800404D463B
:101A60004E689C43F60300D51C432C60DAF8004016
:101A700055464E689C43B60300D51C432C60DBF8EA
:101A800000405D464E689C43F60200D51C432C6026
:101A9000DEF8004075464E689C43B60200D51C43F4
:101AA0002C60521C102AFFF43CAFBDE8F88F0000F8
:101AB000003C014044380240003001400000024038
:101AC0000004024000080240000C024000100240E6
:101AD0000014024000180240001C02400020024096
:101AE000002402400069084000D00120704742698C
:101AF0004A40426170470AB1816170470904FBE7BF
:101B00000148006870470000040002200248016894
:101B1000491C01607047000004000220074810B50E
:101B2000016841F400710160052000F0EBF90F201D
:101B300000F006F800F0BAF9002010BD003C0240A9
:101B400010B5044607484FF47A710068B0FBF1F015
:101B500001F060F900222146501E00F0B3F9002088
:101B600010BD0000000002202DE9F041044690F86D
:101B7000A00015460F4601281DD0012684F8A0605C
:101B8000022084F8A10005EB850000EBC50034229B
:101B900004EB80003830FEF735FE2A4639462046F1
:101BA00004F0DAFE2068466284F8A160002084F820
:101BB000A000BDE8F0810220FBE7000070B5040042
:101BC00004D094F8A100002510B106E0012070BDFA
:101BD000204684F8A05000F06FF8022084F8A1009D
:101BE0002068816921F070418161D4E901100143CD
:101BF000D4E90302104301432068826911438161E3
:101C0000206882682B490A408260A08A020420680A
:101C10008368A6693343134383602068C2680A401F
:101C2000C260A08B02042068C368266A3343134352
:101C3000C360206802690A400261A08C0204206827
:101C40000369A66A334313430361206842690A406B
:101C50004261A08D010420684269236B1A430A4344
:101C6000426194F83500020294F8360001042068BD
:101C7000C36A03F07F43C3622068C36A114394F8C8
:101C8000346033430B43C3622068416B41F004016D
:101C900041632068416B41F0020141632068816922
:101CA00041F001018161C4F8A450012084F8A10031
:101CB000002070BD00F800F0364810B586B001680D
:101CC00041F080610160006800F08060059031485B
:101CD0001438016841F400010160016801F4000159
:101CE0000591016841F002010160016801F0020103
:101CF0000591016841F020010160016801F02001B7
:101D00000591016841F040010160016801F0400166
:101D10000591016841F080010160016801F08001D6
:101D20000591016841F480710160006803246946EF
:101D300000F4807005902020009001200190CDE9F2
:101D400002041548FFF7E0FD4FF480600090022088
:101D5000019000206946CDE902040E2004900F484E
:101D6000FFF7D2FD4FF40C6000900D486946FFF775
:101D7000CBFD4FF47E4000900A486946FFF7C4FD52
:101D800040F2F760009008486946FFF7BDFD06B0D5
:101D900010BD00004438024000040240001402401C
:101DA00000180240001C02400020024070B50446AA
:101DB00090F8A0000E46012820D0012584F8A050FC
:101DC000022084F8A10003EB830000EBC30004EBC6
:101DD00080018E63086E3044C1E90F02486E1044E2
:101DE000486438311A46204604F0B6FD2068456242
:101DF00084F8A150002084F8A00070BD022070BDBE
:101E00002DE9F041044690F8A0000F46012820D0AB
:101E1000012584F8A050022084F8A10003EB830080
:101E200000EBC300002604EB80012046C1E90E67E9
:101E3000C1E91062C1E9187238311A4604F08CFD0C
:101E40002068456284F8A150002084F8A060BDE8B5
:101E5000F0810220FBE70000134A41781160111D58
:101E600003780A1DE3B143680B60017BC37A09075D
:101E700041EA0361837A41EAC341437B41EA8341FA
:101E8000837B41EA4341C37B41EA0341437A41EA10
:101E90000321037A007841EA43010143116070474E
:101EA000002008601060704798ED00E07047012145
:101EB00000F01F0291404009800000F1E020C0F8CE
:101EC000001170470E4BF0B41B68C3F30223C3F13B
:101ED0000704042C00D904241D1D072D01D2002362
:101EE00000E0DB1E012606FA04F56D1E0D409D4044
:101EF0009E40761E164045EA0601F0BC04F0A0BEE6
:101F00000CED00E0064A00F0070110684FF6FF03F1
:101F1000184040EA01200349084310607047000060
:101F20000CED00E00000FA051848F8B5016841F032
:101F3000805101600068164D00F0805000902868C4
:101F400040F480302860FFF7DBFD4FF47A760446DA
:101F500004E0FFF7D5FD001BB0420FD86868C0034E
:101F6000F7D5286840F400302860FFF7C9FD044623
:101F700006E0FFF7C5FD001BB04201D90320F8BD04
:101F800068688003F5D50020F8BD000040380240A5
:101F9000007000402DE9F84F04460078DFF824A4D3
:101FA0004FF000084546C0070FD0DAF8001021F4C2
:101FB0000001CAF80010DAF80010626B1143CAF889
:101FC0000010606B08B94FF001082068FE4E000356
:101FD0000FD53068E16B20F4401008433060E06BAF
:101FE000B0F5801F01D018B103E04FF0010800E008
:101FF00001252068C0020FD53068216C20F4400014
:1020000008433060206CB0F5800F01D018B103E0B8
:102010004FF0010800E001252068C10101D54FF013
:102020000108800664D5E7483830016841F08051E6
:1020300001600068DFF8949300F080500090D9F8B8
:10204000001041F48071C9F80010FFF759FD0746F0
:1020500004E0FFF755FDC01B64287DD8D9F80000C7
:10206000C005F6D5DFF86093A9F11C09D9F8000086
:1020700010F4407029D0218E01F44071814224D0A7
:10208000D9F80010D9F8002021F4407142F48032D0
:10209000C9F80020D9F8002022F48032C9F80020C5
:1020A000C9F80010D9F80000C0070ED0FFF728FDCE
:1020B000074641F2883B04E0FFF722FDC11B59456A
:1020C000CBD8D9F800008007F6D5206BC0F30121EA
:1020D00003297DD0DAF8001021F4F811CAF80010B5
:1020E000D9F80010228EC2F30B021143C9F8001078
:1020F0002078C00607D5306820F0807030603068E6
:10210000A16B0843306020884104B14805D50168BF
:10211000626E21F44031114301602188090405D524
:102120000168A26E21F44021114301602168C903B6
:1021300005D50168E26E21F4401111430160216868
:10214000890305D50168226F21F440011143016024
:102150002178490607D500E02BE10168626C21F087
:102160000301114301602178090605D50168A26CBD
:1021700021F00C01114301602188C90505D50168D2
:10218000E26C21F03001114301602188890505D5F9
:102190000168226D21F0C0011143016021884905C9
:1021A00005D50168626D21F44071114301602188F9
:1021B000090505D50168A26D21F440611143016054
:1021C0002188C90407D50168E26D21F4405100E07F
:1021D00021E0114301602188890405D50168226E40
:1021E00021F44041114301602168490205D501688D
:1021F000A26F21F08061114301602168890215D529
:102200000168E26F21F0006111430160E16FB1F1FB
:10221000006F0AD00AE0DAF800206E4B22F4F812C0
:1022200018400243CAF800205AE7012521680A072E
:1022300000D50125490305D50168626F21F0407181
:10224000114301602168090206D50168D4F8802095
:1022500021F08051114301602168490106D50168D0
:10226000D4F8842021F0005111430160206800015E
:1022700006D53068D4F8881020F00070084330602C
:102280002068C00006D53068D4F88C1020F080603B
:1022900008433060B8F1000F47F6C07B4FF4403779
:1022A0004FF070694FF0E04A03D12068B0F1007F31
:1022B0007ED144480838016821F080610160FFF751
:1022C0001FFC804605E0FFF71BFCA0EB080064281C
:1022D0006FD83C48083800680001F4D42078C10762
:1022E0003D482DD0616B59BB016897FAA7F201F404
:1022F0004031B2FA82F2D140026899FAA9F39BFA0E
:10230000ABFC02F07062B3FA83F3BCFA8CFCDA40E7
:10231000636803FA0CF397FAA7FCBCFA8CFC01FA89
:102320000CF10B4399FAA9F1B1FA81F18A401343F8
:10233000A1689AFAAAF2B2FA82F291400B430360C2
:1023400021680A0303D5E26BB2F5801F05D0C902EC
:1023500047D5216CB1F5800F43D1016897FAA7F2F8
:1023600001F44031B2FA82F2D14002689AFAAAF33B
:102370009BFAABFC02F0E042B3FA83F3BCFA8CFCAC
:10238000DA40636803FA0CF397FAA7FCBCFA8CFCFA
:1023900001FA0CF199FAA9FC0B43E168BCFA8CFC38
:1023A00001FA0CF10B439AFAAAF1B1FA81F101E0BA
:1023B0007AE0F2E08A40134303603168626A21F0F8
:1023C0001F010BE0083802408C38024000700040CA
:1023D00090380240FFFCFF0F84380240521E114328
:1023E00031602168C9012DD5016801F0706299FA48
:1023F000A9F1B1FA81F122FA01FC016897FAA7F379
:1024000001F0E0429AFAAAF1B3FA83F3B1FA81F14A
:1024100022FA01F89BFAABF26168B2FA82F29140BB
:1024200022699A4099FAA9F31143B3FA83F30CFA9B
:1024300003F29AFAAAF31143B3FA83F308FA03F208
:1024400011430160216889011BD59BFAABF26168D9
:1024500097FAA7F3B2FA82F2B3FA83F391402269B2
:102460009A4099FAA9F31143E268B3FA83F39A40C8
:102470009AFAAAF31143A268B3FA83F39A4011437C
:1024800001607548016841F080610160FFF738FB29
:10249000804605E0FFF734FBA0EB080064287CD8F9
:1024A0006D4800680001F5D5002D77D0DFF8A881D0
:1024B000D8F8001021F08051C8F80010FFF720FB79
:1024C000054604E0FFF71CFB401B642865D8D8F8DC
:1024D0000000C0438000F5D5216860480A0301D59B
:1024E000E26B1AB1C90235D5216C99BB016897FA24
:1024F000A7F201F44031B2FA82F2D14002689AFAAE
:10250000AAF39BFAABF502F0E042B3FA83F3B5FA13
:1025100085F5DA406369AB4097FAA7F5B5FA85F51A
:10252000A94099FAA9F50B43A169B5FA85F5A94027
:102530000B439AFAAAF1B1FA81F18A40134303607E
:1025400031686FF0FF03A26A21F4F85103EB022215
:10255000114331602168890231D5E16FB1F1006F1B
:102560002DD1016899FAA9F201F07061B2FA82F2F4
:10257000D14002689AFAAAF39BFAABF502F0E04266
:10258000B3FA83F3B5FA85F5DA40636997FAA7FCE5
:10259000BCFA8CFCAB40256A01E054E05AE005FA35
:1025A0000CF52B4399FAA9F5B5FA85F5A9400B432B
:1025B0009AFAAAF1B1FA81F18A40134303602178B3
:1025C000090730D5016899FAA9F201F07061B2FAF1
:1025D00082F2D140026897FAA7F39BFAABFC02F4AF
:1025E0004032B3FA83F397FAA7F7DA406369BCFA8B
:1025F0008CFCB7FA87F703FA0CF3BA40134399FA45
:10260000A9F2B2FA82F291409AFAAAF20B43E16976
:10261000B2FA82F291400B4303603068E16A20F421
:10262000403008433060D8F80000444640F0805005
:10263000C8F80000FFF764FA054607E0FFF760FA04
:10264000401B642802D90320BDE8F88F2068C043EE
:102650008000F3D40020F7E70038024088380240B9
:102660002DE9F047DFF8448104460E46D8F8000013
:1026700000F00F00B0420CD2D8F8001021F00F018A
:102680003143C8F80010D8F8000000F00F00B04245
:1026900062D12078464F800705D53868A16820F0C0
:1026A000F000084338602078C00744D04049606893
:1026B0000839012816D00968022816D08907002990
:1026C0004ADA396821F0030101433960FFF718FA4B
:1026D0000546606841F2883101280ED002288946FB
:1026E00017D024E009688903E9E78901E7E7FFF7E4
:1026F00007FA411B494501D916E089463868C0F3FD
:1027000081000128F3D116E0FFF7FAF9411B494592
:102710000AD83868C0F381000228F5D10BE0FFF732
:10272000EFF9411B494502D90320BDE8F08738681D
:1027300010F00C0FF3D1D8F80010404601F00F0153
:10274000B1420BD9016821F00F01314301600068EB
:1027500000F00F00B04201D00120E6E720784007EA
:1027600005D53868E16820F4E050084338602078E7
:10277000000706D53868216920F4604040EAC100AE
:10278000386000F051F83968F02292FAA2F201F0B4
:10279000F001B2FA82F2D140064A515CC8400649C3
:1027A00008600F20FFF7CCF90020BEE7003C024094
:1027B000083802403A73010800000220014800680E
:1027C00070470000000002200848094900680968B5
:1027D0004FF4E05292FAA2F201F4E051B2FA82F21E
:1027E000D140044A515CC8407047000000000220FC
:1027F000083802404A730108084809490068096816
:102800004FF4604292FAA2F201F46041B2FA82F20D
:10281000D140044A515CC8407047000000000220CB
:10282000083802404A730108194830B5006810F0B2
:102830000C01184812D0184C04290ED008290DD1CB
:10284000134A121F1168136801F03F015D0247F639
:10285000C07304D5B4FBF1F003E0204630BDB0FBFB
:10286000F1F01168194093FAA3F3B3FA83F3D94056
:10287000484311684FF4403292FAA2F201F4403119
:10288000B2FA82F2D140491C4900B0FBF1F030BDF0
:10289000083802400024F40040787D012DE9F84F0B
:1028A000DFF8108304460078A8F10409A9F10405B3
:1028B000C0074AD0D8F800104046C1F38101012971
:1028C00008D00068C0F3810002280AD1D9F80000BE
:1028D000400206D52868800337D5606800286ED08E
:1028E00033E06068B0F5803F0BD010B1B0F5A02F99
:1028F00011D0286820F480302860286820F48020D7
:1029000002E0286840F480302860606888B1FFF7F2
:10291000F7F8064609E0286840F480202860F0E7D0
:10292000FFF7EEF8801B642872D828688003F7D57B
:102930000BE0FFF7E5F8064604E0FFF7E1F8801B3F
:102940006428F1D828688003F7D42078800746D51A
:10295000D8F8001040464FF0F80711F00C0F08D0DF
:102960000068C0F3810002280AD1D9F800004002B3
:1029700006D42868800716D5E06801281FD112E028
:10298000E068002828681BD040F001002860FFF7AD
:10299000B7F8064604E0FFF7B3F8801B0228C3D857
:1029A00028688007F7D5286897FAA7F22169B2FA54
:1029B00082F220F0F8009140084328600FE0F7E031
:1029C00020F001002860FFF79BF8064604E0FFF7BF
:1029D00097F8801B02281BD828688007F7D4207836
:1029E000000725D5734F60696C370028386810D010
:1029F00040F001003860FFF783F8064604E0FFF777
:102A00007FF8801B022803D838688007F7D50FE0CD
:102A10008AE020F001003860FFF772F8064604E013
:102A2000FFF76EF8801B02287ED838688007F7D43D
:102A30002078400750D55F483830016841F0805118
:102A4000016000685C4F00F080500090386840F4EE
:102A500080703860FFF754F8064604E0FFF750F83E
:102A6000801B642860D83868C005F7D5514FA0682E
:102A7000683701280AD008B1052813D0386820F03B
:102A800001003860386820F0040002E0386840F047
:102A900001003860A06841F2883A88B1FFF730F849
:102AA000064609E0386840F004003860EEE7FFF7BA
:102AB00027F8811B514573D838688007F7D50BE09C
:102AC000FFF71EF8064604E0FFF71AF8811B514590
:102AD00066D838688007F7D4A06930B3D8F80010FA
:102AE000C1F38101022963D00228286820F0807098
:102AF000286003D0FFF704F8044654E0FFF700F81D
:102B0000064604E0FEF7FCFF801B022848D8286830
:102B10008001F7D447F6C072D4E9070192FAA2F215
:102B20000843B2FA82F201E03AE03FE0616A4FF016
:102B3000FF339140A26A03EB52024FF4403393FA01
:102B4000A3F3B3FA83F39A4011434FF07062084342
:102B5000E16A92FAA2F2B2FA82F291404FF0E042B8
:102B60000843216B92FAA2F2B2FA82F29140084332
:102B7000C9F80000286840F080702860FEF7C0FFA8
:102B8000044604E0FEF7BCFF001B022808D82868B2
:102B90008001F7D50AE0FEF7B3FF001B022802D937
:102BA0000320BDE8F88F28688001F4D40020F8E7FE
:102BB0000120F6E7083802400070004070B50400BC
:102BC0000D4603D094F82C0010B107E0012070BD31
:102BD000002084F82D00204600F012F8022084F82E
:102BE0002C002068211DFEF77DFAD4E90002294659
:102BF000FEF7CAFA012084F82C00002070BD000006
:102C0000304800B587B0016841F0010101600068FB
:102C100000F0010005902B480838016841F00401DC
:102C20000160016801F004010591016841F00801AB
:102C30000160016801F008010591016841F010018F
:102C40000160016801F010010591016841F0200167
:102C50000160016801F020010591016841F0400127
:102C600001600068694600F0400005900D2000906A
:102C70000220019001200290032003900C20049078
:102C80001148FEF741FE4CF2037000900F48694670
:102C9000FEF73AFE4FF6837000900D486946FEF746
:102CA00033FE4FF63F0000900A486946FEF72CFEBF
:102CB00048F23710009008486946FEF725FE07B035
:102CC00000BD00003838024000080240000C0240FD
:102CD00000100240001402400018024010B50446E3
:102CE00090F82C00022809D0022084F82C002068DB
:102CF000FEF720FA012084F82C00002010BD70B5EA
:102D0000044690F82C000D4602280CD0022084F8CE
:102D10002C002068FEF714FA2868022804D001204D
:102D200084F82C00002070BD0520F9E770B5040080
:102D300015460E4603D094F8450010B107E0012077
:102D400070BD002084F84400204600F01BF8206885
:102D500004F10801FEF75CF9A26831462068FEF72D
:102D600093F9E36A2946D4E90102FEF731F9A16833
:102D7000206850F8212042F0010240F82120002074
:102D800070BD00001A4800B587B0016841F001012C
:102D90000160006800F001000590154808380168DE
:102DA00041F008010160016801F008010591016826
:102DB00041F0100101600068694600F010000590C4
:102DC0004EF2B37000900220019001200290032087
:102DD00003900C2004900748FEF796FD4FF6807094
:102DE000009005486946FEF78FFD07B000BD000062
:102DF00038380240000C0240001002404FF0E02141
:102E00000428086903D020F004000861704740F0EE
:102E10000400FAE7401EB0F1807F10B501D3012015
:102E200010BD4FF0E02460610F21601703F008FF30
:102E30000020A06107202061002010BD10B5040013
:102E400003D094F8390010B104E0012010BD2046F1
:102E500000F00CF8022084F839002068211D06F0EB
:102E6000F1FE012084F83900002010BD7047016890
:102E7000CA6842F00102CA600068016841F00101BD
:102E8000016000207047704790F8691090F86A0060
:102E90000843704770B501680446C8690A688B68C2
:102EA00010F00F0F5CD040F201152B426BD0C5071C
:102EB00007D0D50505D501250D62E16E41F0010170
:102EC000E166810708D5D90706D025680221296265
:102ED000E16E41F00401E166410708D5D90706D04B
:102EE000256804212962E16E41F00201E1660107D3
:102EF0000CD502F0200103F00103194306D023682A
:102F000008211962E16E41F00801E166E16E0029D5
:102F100032D0800604D5900602D5204606F0C6FFC2
:102F2000E06E000703D420688068400625D520465F
:102F300006F0AEFF2068816849061AD5816821F045
:102F400040018160606EA0B12F490165606EFEF79F
:102F50005BF9002810D0606E016DBDE87040084735
:102F6000830610D593060ED52046BDE8704006F0C6
:102F70009DBF2046FFF787FF70BD2046FFF783FF08
:102F80000020E06670BD03062ED513062CD594F8FC
:102F900069002128F6D1B4F8520020B1A068B0F53C
:102FA000805F0AD00BE0086820F08000086020688D
:102FB000016841F04001016070BD206958B1E06CCA
:102FC000411CE164216800788862B4F85200401E18
:102FD000A4F8520070BDE06C0088C0F3080088625D
:102FE000E06C801CE064F0E74006F3D55006F1D5B4
:102FF0000A68204622F040020A60202184F8691005
:1030000000F0F0F870BD00007D9E000810B50400CF
:1030100003D094F8690010B107E0012010BD002032
:1030200084F86800204600F027F8242084F869001E
:103030002068016821F001010160204606F072FF5E
:103040000128EBD0606A10B1204606F085FE2068AA
:10305000416821F4904141602068816821F02A0193
:1030600081602068016841F0010101602046BDE8EF
:10307000104006F0D5BE000010B5006886B01A49B1
:1030800088422FD11948016841F0010101600068B0
:1030900000F00100059015481430016841F010015E
:1030A000016000680121124C00F0100005904FF4FF
:1030B000007000900220CDE90101039007206946CD
:1030C00004902046FEF720FC211520460091694619
:1030D000FEF71AFC2520FEF7EAFE03222520114602
:1030E000FEF7F0FE06B010BD00100140303802407F
:1030F0000000024090F86A30202B44D1B9B1B2B13F
:1031000090F86830012B3ED0012380F8683041658B
:10311000A0F85820A0F85A20FF228168B1F5805FFE
:1031200007D07F2351B1B1F1805F0CD010E00120B6
:103130007047016921B940F2FF1107E00169F9B94F
:10314000A0F85C2004E00169D1B13F21A0F85C1037
:103150000021C166222280F86A2080F86810016888
:103160000A6842F480720A6001688A6842F00102CB
:103170008A600068016841F020010160002070470A
:10318000A0F85C30E4E702207047000030B500682A
:10319000114988420CD1114A5088010408D41146C3
:1031A0004FF000034404097806D50A2901D0538062
:1031B00030BD40F400400DE00D2909D0084DC0F3AA
:1031C0000D04401C80B2C72829555080EFD830BD6F
:1031D00040F48040508030BD0010014010000220BB
:1031E000101202207047FEE710B5124C0022102189
:1031F0002046FEF780FC206820F4406020602068B4
:1032000040F480602060002220462021FEF773FCFD
:10321000022007F0B3F8012220461021FEF76BFCD4
:10322000022007F0ABF800222046BDE81040102134
:10323000FEF761BC001C0240114810B586B0016861
:1032400041F080010160006869460E4C00F080008A
:103250000590302000900120019002900220039000
:103260002046FEF751FB012220462021FEF743FCB9
:10327000012220461021FEF73EFC06B010BD0000E2
:1032800030380240001C024010B5124C00221021C0
:103290002046FEF730FC206820F440602060206863
:1032A00040F480602060012220462021FEF723FCAC
:1032B000022007F063F8012220461021FEF71BFCD4
:1032C000022007F05BF800222046BDE810401021E4
:1032D000FEF711BC001C02402DE9F041174E0746D5
:1032E0000024306820F4406030603068306025464B
:1032F000002230461021FEF7FEFB022007F03EF8C8
:10330000012230461021FEF7F6FB60062021040E54
:103310003046FEF7E7FB08B1641CE4B2012007F079
:103320002DF86D1CEDB2082DE2D327B1FFF75CFF3D
:103330002046BDE8F081FFF7A7FFF9E7001C024037
:1033400070B5194E05463046316821F44061316050
:10335000316841F48061316000221021FEF7CBFB1F
:103360000024280601D5012200E000223046202159
:10337000FEF7C1FB6806050E022006F0FFFF0122E2
:1033800030461021FEF7B7FB022006F0F7FF0022BF
:1033900030461021FEF7AFFB022006F0EFFF641C61
:1033A000E4B2082CDDD370BD001C024010B5124CF5
:1033B000206820F440602060206840F48060206035
:1033C000012220462021FEF796FB012220461021F3
:1033D000FEF791FB042006F0D1FF002220462021B9
:1033E000FEF789FB042006F0C9FF00222046BDE855
:1033F00010401021FEF77FBB001C024010B5124C9C
:10340000206820F440602060206840F480602060E4
:10341000002220461021FEF76EFB002220462021CC
:10342000FEF769FB042006F0A9FF012220461021C7
:10343000FEF761FB012220462021FEF75CFBBDE880
:103440001040042006F09ABF001C024070B5174DD2
:103450000024286820F44060286028682860012241
:1034600020212846FEF747FB012006F087FF0122B6
:1034700028461021FEF73FFB012006F07FFF07E002
:10348000641CE4B2FA2C03D9FFF7B8FF012070BD29
:1034900020212846FEF726FB0028F1D100222846ED
:1034A0001021FEF728FB002070BD0000001C024028
:1034B0001B4870B586B0016841F0010101600168E8
:1034C00001F001010591016841F00401016001680A
:1034D00001F004010591016841F08001016000687C
:1034E00003240025694600F0800005900220012693
:1034F000CDE902040B48CDE90065FEF705FA70033B
:1035000003948DE8610008486946FEF7FDF90C2038
:10351000009006486946FEF7F7F906B070BD000056
:10352000303802400000024000080240001C024007
:103530001CB5FCF7E2FE0121072006F05BFA6420CF
:1035400006F0F4FE0021072006F054FA642006F08D
:10355000EDFEFCF7D4FE1548012201788DF800102D
:1035600041788DF8011081788DF80210C1788DF8BE
:10357000031001798DF8041040798DF805000D488D
:103580000B49C0E9001291038160C910C16000219C
:103590000182C0F814D0C0E90621D1050162FDF70F
:1035A00005FF002800D001201CBD000040BD042004
:1035B00000800240A01402200E490F4A70B5064652
:1035C00008881268002422B13046BDE8704002F03D
:1035D0006BBF4D8800214543084602F07DFD02F097
:1035E0002BFFB1B2054801E00180641CAC42FBD363
:1035F00070BD0000C8130220801402200000086083
:103600002DE9F05F394C3A4DA071296839B102F0CB
:103610006BFFE88A2080288B6080BDE8F09F3349EB
:103620002C232A254FF0F0092B2649F2413A4FF47A
:10363000305E45F2105B89884FF448774FF4A078EC
:1036400045F2103C4FF4F07258B1A4F80080514597
:10365000A4F8029001D0614529D123816581A6811A
:1036600039E0A4F800905145A4F8028001D06145EA
:1036700008D1238161456581A68131D1A4F80080FC
:1036800062802DE0594508D1A4F808E04FF4285095
:1036900060814FF42C50A08106E0A1F5C85063383A
:1036A0001ED123816681A5812280678018E059455B
:1036B00008D1A4F808E04FF4285060814FF42C5052
:1036C000A08106E0A1F5C850633804D1238165814B
:1036D000A68127806280614502D12280A4F8028001
:1036E0000020BDE8F05F02F01BBC0000C813022000
:1036F000801402202DE9FE4F00268246A2EB00082E
:1037000035465F1A8946701EB8F1000F02DD4FF092
:10371000010102E003D14FF00001019102E0C8F184
:1037200000080190002F02DD4FF0010002E003D1FC
:103730004FF00000009002E0C7F100070090B8458C
:10374000404601DD044600E03C464FF0000B601CA3
:10375000029015E01FFA89F11FFA8AF000F016F8BE
:103760004644A6423D4402DD0199361B8A44A542E7
:1037700002DD00992D1B89440BF101001FFA80FB2B
:1037800002998B45E6DDBDE8FE8F0000084A10B5C2
:10379000084C126822B12268BDE8104002F0B8BEA1
:1037A00002F09AFC02F048FE03492088088010BD10
:1037B0008014022018000220000008602DE9F0416A
:1037C0001C4615460E4607460B46FFF793FF3A4642
:1037D000234631461046FFF78DFF23462A461946F9
:1037E0003846FFF787FF2A46234631461046BDE894
:1037F000F041FFF77FBF2DE9FC5F002415468046AE
:103800000F460320A0EB450649E0781B019081B2EA
:1038100008EB040A1FFA8AF0FFF7B8FF381B009084
:1038200081B208EB05091FFA89F0FFF7AFFF07EB3C
:10383000040B1FFA8BF11FFA89F0FFF7A7FF07EBC4
:1038400005091FFA89F11FFA8AF0FFF79FFFA8EB1D
:10385000040A1FFA89F11FFA8AF0FFF797FFA8EB15
:1038600005091FFA8BF11FFA89F0FFF78FFF019806
:1038700081B21FFA8AF0FFF789FF009881B21FFA20
:1038800089F0FFF783FF641C002E03DA06EB840641
:10389000B61D04E0601B6D1E06EB80060A36AC42C6
:1038A000B3DDBDE8FC9F00002DE9F04104463A4835
:1038B0000D46006820B12046BDE8F04102F028BE68
:1038C000364E270A4FEA15283146B0884989A0F5B7
:1038D0001343413B0CD0A0F5A643103B08D0A0F504
:1038E000AA43103B11D0A0F5C853633B27D04BE04F
:1038F000084602F095FD384602F086FDE0B202F07F
:1039000083FDB08902F08CFD38E0084602F088FDA6
:10391000384602F079FD7089401C80B202F080FDCB
:10392000E0B202F071FDB08902F07AFD404602F08B
:103930006BFDB089401C80B202F072FD21E0B079CD
:1039400018B93088001B401E84B2084602F068FD9A
:10395000270A384602F058FDE0B202F055FD38461D
:1039600002F052FDE0B202F04FFDB08902F058FDC6
:10397000404602F049FDE8B202F046FD404602F042
:1039800043FDE8B202F040FD054930890880881CFB
:103990000280BDE8F081000080140220C8130220DC
:1039A000FEFF07602DE9F8431F46144B8046089838
:1039B0001B6833B13B460090404602F0C7FDBDE8AE
:1039C000F883A2EB0802DFF83890521C0C4696B23E
:1039D00085B20FE02146404602F07EFB02F02CFD4E
:1039E0000020494602E00D80401C80B2B042FAD36C
:1039F000641CA4B2BC42EDD9E1E7000080140220AF
:103A0000000008602DE9F04F95B002F027FFFE4D51
:103A10004FF6FF7A49F2413945F21036A5F14C08CC
:103A200045F2105441F66317A88018B102F0E4FD86
:103A300002F094B9F548016841F0020101600068A4
:103A40000EA900F00200139020200E9001200F908C
:103A5000109003201190EE48FDF756FF02F0A2F9F6
:103A60004FF02041C8F80010EA4910224046C8F83B
:103A700004100021C8F80810C8F80C10C0E904129E
:103A80001202C8F81810C8F81C10C0E908129200F9
:103A9000C0E90A129201C8F830101120C8E90D12CD
:103AA000CDE907015520099015200290CDE90001CC
:103AB000D5486A460D914C38069107A9FFF736F9AB
:103AC000322006F033FCD32002F0AAFC02F0A6F963
:103AD000A88002F0A3F9A88002F0A0F90AEA002069
:103AE0005246A88002F09AF9A9880843A880484560
:103AF00047D0D42002F094FC02F090F9A88002F0A4
:103B00008DF9A88002F08AF902EA0020A88002F06C
:103B100085F9A9880843A880B04232D04FF45A40B2
:103B200002F07EFC02F07AF9A8804FF45B4002F0CC
:103B300077FC02F073F902EA0020A8804FF45C40A1
:103B400002F06EFC02F06AF9A9880843A880B0F57B
:103B5000004F7CD0A04214D0A12002F061FC02F002
:103B60005DF9A88002F05AF902EA0020A88002F06C
:103B700055F9A9880843A880A0F5AE41613900D164
:103B8000AF80A5A0A988FCF70FFCA88848457DD187
:103B9000CF2002F045FC002002F036FCC12002F0EC
:103BA00033FC302002F030FCED2002F039FC6420C0
:103BB00002F02AFC032002F027FC122002F024FC71
:103BC000812002F021FCE82002F02AFC852002F08E
:103BD0001BFC102002F018FC7A2002F015FCCB2010
:103BE00002F01EFC392002F00FFC2C2002F00CFC2D
:103BF000002002F009FC342002F006FC022002F052
:103C000003FCF72002F00CFC202002F0FDFBEA2070
:103C100002F006FC002002F0F7FB002002F0F4FBAB
:103C2000C02002F0FDFB1B2002F0EEFBC12002F0E1
:103C3000F7FB012002F0E8FBC52002F0F1FB302089
:103C400002F0E2FB302002F0DFFBC72000E0B7E02B
:103C500002F0E6FBB72002F0D7FB362002F0E0FBD3
:103C6000482002F0D1FB3A2002F0DAFB552002F0A6
:103C7000CBFBB12002F0D4FB002002F0C5FB1A20E0
:103C800002F0C2FBB62002F0CBFB00E09AE00A2073
:103C900002F0BAFBA22002F0B7FBF22002F0C0FB58
:103CA000002002F0B1FB262002F0BAFB012002F056
:103CB000ABFBE02002F0B4FB0F2002F0A5FB2A20B2
:103CC00002F0A2FB282002F09FFB082002F09CFBE0
:103CD0000E2002F099FB082002F096FB542002F01F
:103CE00093FBA92002F090FB432002F08DFB0A20F9
:103CF00002F08AFB0F2002F087FB002002F084FB19
:103D0000002002F081FB002002F07EFB002002F088
:103D10007BFBE12002F084FB002002F075FB152004
:103D200002F072FB172002F06FFB072002F06CFB21
:103D3000112002F069FB062002F066FB2B2002F046
:103D400063FB562002F060FB3C2002F05DFB052087
:103D500002F05AFB102002F057FB0F2002F054FB38
:103D60003F2002F051FB3F2002F04EFB0F2002F0FB
:103D70004BFB2B2002F054FB002002F045FB0020FF
:103D800002F042FB012002F03FFB3F2002F03CFB2F
:103D90002A2002F045FB002002F036FB002002F052
:103DA00033FB002002F030FBEF2002F02DFB11204E
:103DB00002F036FB782006F0B9FA292001F011BF95
:103DC000AC80DEE6B0427DD1ED2002F029FB01207F
:103DD00002F01AFBFE2002F017FBEE2002F020FB9F
:103DE000DE2002F011FB212002F00EFBF12002F098
:103DF00017FB012002F008FBDF2002F011FB10206E
:103E000002F002FBC4200FE0C81302203038024049
:103E100000040240040100A0204C43442049443ADD
:103E200025780D0A0000000002F0FAFA8F2002F057
:103E3000EBFAC62002F0F4FA002002F0E5FAE220E4
:103E400002F0E2FAE22002F0DFFAE22002F0DCFA0D
:103E5000BF2002F0E5FAAA2002F0D6FAB02002F064
:103E6000DFFA0D2002F0D0FA002002F0CDFA0D208A
:103E700002F0CAFA002002F0C7FA112002F0C4FAD8
:103E8000002002F0C1FA192002F0BEFA002002F070
:103E9000BBFA212002F0B8FA002002F0B5FA2D207A
:103EA00002F0B2FA002002F0AFFA3D2002F0ACFAC4
:103EB000002002F0A9FA5D2002F0A6FA002002F02C
:103EC000A3FA00E0FDE35D2002F09EFA002002F07C
:103ED0009BFAB12002F0A4FA802002F095FA0020AB
:103EE00002F092FA8B2002F08FFA002002F08CFA96
:103EF000962002F089FA002002F086FAB22002F041
:103F00008FFA002002F080FA002002F07DFA0220F1
:103F100002F07AFA002002F077FA032002F074FA35
:103F2000002002F071FAB32002F07AFA002002F0C9
:103F30006BFA002002F068FA002002F065FA002017
:103F400002F062FA002002F05FFA002002F05CFA50
:103F5000002002F059FA002002F056FA002002F088
:103F600053FA002002F050FA002002F04DFA00202F
:103F700002F04AFA002002F047FA002002F044FA68
:103F8000002002F041FA002002F03EFA002002F088
:103F90003BFA002002F038FA002002F035FA002047
:103FA00002F032FA002002F02FFA002002F02CFA80
:103FB000002002F029FA002002F026FAB42002F0D4
:103FC0002FFA8B2002F020FA002002F01DFA962032
:103FD00002F01AFA002002F017FAA12002F014FAF7
:103FE000002002F011FAB52002F01AFA022002F0C5
:103FF0000BFA002002F008FA032002F005FA002074
:1040000002F002FA042002F0FFF9002002F0FCF9AD
:10401000B62002F005FA002002F0F6F9002002F0C6
:10402000F3F9B72002F0FCF9002002F0EDF90020CE
:1040300002F0EAF93F2002F0E7F9002002F0E4F98B
:104040005E2002F0E1F9002002F0DEF9642002F0C7
:10405000DBF9002002F0D8F98C2002F0D5F900201D
:1040600002F0D2F9AC2002F0CFF9002002F0CCF936
:10407000DC2002F0C9F9002002F0C6F9702002F03D
:10408000C3F9002002F0C0F9902002F0BDF9002031
:1040900002F0BAF9EB2002F0B7F9002002F0B4F90F
:1040A000DC2002F0B1F9002002F0AEF9B82002F0F5
:1040B000B7F9002002F0A8F9002002F0A5F90020CD
:1040C00002F0A2F9002002F09FF9002002F09CF912
:1040D000002002F099F9002002F096F9002002F089
:1040E00093F9BA2002F09CF9242002F08DF9002007
:1040F00002F08AF9002002F087F9002002F084F92A
:10410000C12002F08DF9202002F07EF9002002F09B
:104110007BF9542002F078F9002002F075F9FF20B5
:1041200002F072F9002002F06FF9C22002F078F973
:104130000A2002F069F9002002F066F9042002F07A
:1041400063F9002002F060F9C32002F069F93C2015
:1041500002F05AF9002002F057F93A2002F054F91F
:10416000002002F051F9392002F04EF9002002F04F
:104170004BF9372002F048F9002002F045F93C20C5
:1041800002F042F9002002F03FF9362002F03CF93B
:10419000002002F039F9322002F036F9002002F056
:1041A00033F92F2002F030F9002002F02DF92C20F5
:1041B00002F02AF9002002F027F9292002F024F960
:1041C000002002F021F9262002F01EF9002002F062
:1041D0001BF9242002F018F9002002F015F9242020
:1041E00002F012F9002002F00FF9232002F00CF97E
:1041F000002002F009F93C2002F006F9002002F04C
:1042000003F9362002F000F9002002F0FDF8322018
:1042100002F0FAF8002002F0F7F82F2002F0F4F88C
:10422000002002F0F1F82C2002F0EEF8002002F05D
:10423000EBF8292002F0E8F8002002F0E5F826204B
:1042400002F0E2F8002002F0DFF8242002F0DCF8AF
:10425000002002F0D9F8242002F0D6F8002002F065
:10426000D3F8232002F0D0F8002002F0CDF8C420CB
:1042700002F0D6F8622002F0C7F8002002F0C4F87D
:10428000052002F0C1F8002002F0BEF8842002F000
:10429000BBF8002002F0B8F8F02002F0B5F80020DA
:1042A00002F0B2F8182002F0AFF8002002F0ACF8EB
:1042B000A42002F0A9F8002002F0A6F8182002F0CD
:1042C000A3F8002002F0A0F8502002F09DF8002092
:1042D00002F09AF80C2002F097F8002002F094F80F
:1042E000172002F091F8002002F08EF8952002F0DD
:1042F0008BF8002002F088F8F32002F085F8002007
:1043000002F082F8E62002F07FF8002002F07CF84C
:10431000C52002F085F8322002F076F8002002F085
:1043200073F8442002F070F8002002F06DF8652068
:1043300002F06AF8002002F067F8762002F064F8D4
:10434000002002F061F8882002F05EF8002002F000
:104350005BF8C62002F064F8202002F055F8002037
:1043600002F052F8172002F04FF8002002F04CF84B
:10437000012002F049F8002002F046F8C72002F0C0
:104380004FF8002002F040F8002002F03DF8002035
:1043900002F03AF8002002F037F8C82002F040F8A6
:1043A000002002F031F8002002F02EF8002002F088
:1043B0002BF8002002F028F8C92002F031F8002084
:1043C00002F022F8002002F01FF8002002F01CF892
:1043D000002002F019F8002002F016F8002002F088
:1043E00013F8002002F010F8002002F00DF8002071
:1043F00002F00AF8002002F007F8002002F004F8AA
:10440000002002F001F8002001F0FEFF002001F082
:10441000FBFF002001F0F8FF002001F0F5FFE02095
:1044200001F0FEFF162001F0EFFF002001F0ECFF8D
:104430001C2001F0E9FF002001F0E6FF212001F03F
:10444000E3FF002001F0E0FF362001F0DDFF002057
:1044500001F0DAFF462001F0D7FF002001F0D4FF81
:10446000522001F0D1FF002001F0CEFF642001F0C6
:10447000CBFF002001F0C8FF7A2001F0C5FF00202B
:1044800001F0C2FF8B2001F0BFFF002001F0BCFF54
:10449000992001F0B9FF002001F0B6FFA82001F03B
:1044A000B3FF002001F0B0FFB92001F0ADFF002004
:1044B00001F0AAFFC42001F0A7FF002001F0A4FF33
:1044C000CA2001F0A1FF002001F09EFFD22001F0E0
:1044D0009BFF002001F098FFD92001F095FF0020FC
:1044E00001F092FFE02001F08FFF002001F08CFF2F
:1044F000F32001F089FF002001F086FFE12001F0A8
:104500008FFF162001F080FF002001F07DFF1C20AE
:1045100001F07AFF002001F077FF222001F074FF04
:10452000002001F071FF362001F06EFF002001F045
:104530006BFF452001F068FF002001F065FF52206D
:1045400001F062FF002001F05FFF642001F05CFFDA
:10455000002001F059FF7A2001F056FF002001F001
:1045600053FF8B2001F050FF002001F04DFF9920F8
:1045700001F04AFF002001F047FFA82001F044FFAE
:10458000002001F041FFB92001F03EFF002001F0C2
:104590003BFFC42001F038FF002001F035FFCA20A6
:1045A00001F032FF002001F02FFFD22001F02CFF9C
:1045B000002001F029FFD82001F026FF002001F0A3
:1045C00023FFE02001F020FF002001F01DFFF32079
:1045D00001F01AFF002001F017FFE22001F020FF98
:1045E000052001F011FF002001F00EFF0B2001F06B
:1045F0000BFF002001F008FF1B2001F005FF002049
:1046000001F002FF342001F0FFFE002001F0FCFE6B
:10461000442001F0F9FE002001F0F6FE4F2001F0E9
:10462000F3FE002001F0F0FE612001F0EDFE00201D
:1046300001F0EAFE792001F0E7FE002001F0E4FE3F
:10464000882001F0E1FE002001F0DEFE972001F05D
:10465000DBFE002001F0D8FEA62001F0D5FE0020F0
:1046600001F0D2FEB72001F0CFFE002001F0CCFE19
:10467000C22001F0C9FE002001F0C6FEC72001F0F3
:10468000C3FE002001F0C0FED12001F0BDFE0020DD
:1046900001F0BAFED62001F0B7FE002001F0B4FE12
:1046A000DD2001F0B1FE002001F0AEFEF32001F0AC
:1046B000ABFE002001F0A8FEE32001F0B1FE0520D2
:1046C00000E00CE301F0A0FE002001F09DFE0A20B6
:1046D00001F09AFE002001F097FE1C2001F094FEEC
:1046E000002001F091FE332001F08EFE002001F049
:1046F0008BFE442001F088FE002001F085FE502052
:1047000001F082FE002001F07FFE622001F07CFEBD
:10471000002001F079FE782001F076FE002001F003
:1047200073FE882001F070FE002001F06DFE9720DE
:1047300001F06AFE002001F067FEA62001F064FE91
:10474000002001F061FEB72001F05EFE002001F0C4
:104750005BFEC22001F058FE002001F055FEC7208C
:1047600001F052FE002001F04FFED12001F04CFE7E
:10477000002001F049FED52001F046FE002001F0A6
:1047800043FEDD2001F040FE002001F03DFEF3205D
:1047900001F03AFE002001F037FEE42001F040FE77
:1047A000012001F031FE002001F02EFE012001F079
:1047B0002BFE002001F028FE022001F025FE002043
:1047C00001F022FE2A2001F01FFE002001F01CFE55
:1047D0003C2001F019FE002001F016FE4B2001F0F4
:1047E00013FE002001F010FE5D2001F00DFE002000
:1047F00001F00AFE742001F007FE002001F004FE23
:10480000842001F001FE002001F0FEFD932001F064
:10481000FBFD002001F0F8FDA22001F0F5FD0020D5
:1048200001F0F2FDB32001F0EFFD002001F0ECFDFE
:10483000BE2001F0E9FD002001F0E6FDC42001F0FA
:10484000E3FD002001F0E0FDCD2001F0DDFD0020C2
:1048500001F0DAFDD32001F0D7FD002001F0D4FDF6
:10486000DD2001F0D1FD002001F0CEFDF32001F0AC
:10487000CBFD002001F0C8FDE52001F0D1FD0020B6
:1048800001F0C2FD002001F0BFFD002001F0BCFDE1
:10489000002001F0B9FD022001F0B6FD002001F07A
:1048A000B3FD292001F0B0FD002001F0ADFD3C205A
:1048B00001F0AAFD002001F0A7FD4B2001F0A4FDAE
:1048C000002001F0A1FD5D2001F09EFD002001F01F
:1048D0009BFD742001F098FD002001F095FD8420DF
:1048E00001F092FD002001F08FFD932001F08CFD7E
:1048F000002001F089FDA22001F086FD002001F0DA
:1049000083FDB32001F080FD002001F07DFDBE207D
:1049100001F07AFD002001F077FDC42001F074FD64
:10492000002001F071FDCD2001F06EFD002001F0AE
:104930006BFDD32001F068FD002001F065FDDC2057
:1049400001F062FD002001F05FFDF32001F05CFD4D
:10495000002001F059FDE62001F062FD112001F078
:1049600053FD002001F050FD342001F04DFD0020EA
:1049700001F04AFD562001F047FD002001F044FD02
:10498000762001F041FD002001F03EFD772001F08E
:104990003BFD002001F038FD662001F035FD0020D0
:1049A00001F032FD882001F02FFD002001F02CFDE8
:1049B000992001F029FD002001F026FDBB2001F027
:1049C00023FD002001F020FD992001F01DFD0020B5
:1049D00001F01AFD662001F017FD002001F014FD22
:1049E000552001F011FD002001F00EFD552001F0D1
:1049F0000BFD002001F008FD452001F005FD002021
:104A000001F002FD432001F0FFFC002001F0FCFC5E
:104A1000442001F0F9FC002001F0F6FCE72001F051
:104A2000FFFC322001F0F0FC002001F0EDFC5520ED
:104A300001F0EAFC002001F0E7FC762001F0E4FC44
:104A4000002001F0E1FC662001F0DEFC002001F016
:104A5000DBFC672001F0D8FC002001F0D5FC6720CA
:104A600001F0D2FC002001F0CFFC872001F0CCFC4B
:104A7000002001F0C9FC992001F0C6FC002001F0E3
:104A8000C3FCBB2001F0C0FC002001F0BDFC99205C
:104A900001F0BAFC002001F0B7FC772001F0B4FC73
:104AA000002001F0B1FC442001F0AEFC002001F038
:104AB000ABFC562001F0A8FC002001F0A5FC23204F
:104AC00001F0A2FC002001F09FFC332001F09CFCCF
:104AD000002001F099FC452001F096FC002001F037
:104AE00093FCE82001F09CFC002001F08DFC0020EC
:104AF00001F08AFC992001F087FC002001F084FC81
:104B0000872001F081FC002001F07EFC882001F06C
:104B10007BFC002001F078FC772001F075FC002080
:104B200001F072FC662001F06FFC002001F06CFCCB
:104B3000882001F069FC002001F066FCAA2001F049
:104B400063FC002001F060FCBB2001F05DFC002054
:104B500001F05AFC992001F057FC002001F054FCB0
:104B6000662001F051FC002001F04EFC552001F0C0
:104B70004BFC002001F048FC552001F045FC0020D2
:104B800001F042FC442001F03FFC002001F03CFC1D
:104B9000442001F039FC002001F036FC552001F0E2
:104BA00033FC002001F030FCE92001F039FCAA20A0
:104BB00001F02AFC002001F027FC002001F024FC79
:104BC000002001F021FC002001F02AFCAA2001F0C5
:104BD0001BFCCF2001F024FC002001F015FC00207C
:104BE00001F012FC002001F00FFC002001F00CFC91
:104BF000002001F009FC002001F006FC002001F07B
:104C000003FC002001F000FC002001F0FDFB00206F
:104C100001F0FAFB002001F0F7FB002001F0F4FBAB
:104C2000002001F0F1FB002001F0EEFB002001F07C
:104C3000EBFB002001F0E8FB002001F0E5FBF02099
:104C400001F0EEFB002001F0DFFB502001F0DCFB67
:104C5000002001F0D9FB002001F0D6FB002001F07C
:104C6000D3FBF32001F0DCFB002001F0CDFBF920A9
:104C700001F0D6FB062001F0C7FB102001F0C4FBB9
:104C8000292001F0C1FB002001F0BEFB3A2001F019
:104C9000C7FB552001F0B8FB112001F0C1FB6420D7
:104CA00005F044FB292001F0BBFB352001F0B8FBE7
:104CB000002001F0A9FB512001F0B2FBFF2001F020
:104CC000A3FB532001F0ACFB2C2001F09DFB5520F1
:104CD00001F0A6FB822001F097FB2C20FEE3A0420E
:104CE0007DD14FF470435521184601F0AFFB4FF2D0
:104CF000010BAA21584601F0A9FB52214FF20200F4
:104D000001F0A4FB08214FF2030001F09FFB0121F9
:104D10004FF2040001F09AFB0D214FF4304001F0F6
:104D200095FB0D214BF2010001F090FB0D214BF2A0
:104D3000020001F08BFB34214FF4364001F086FB7A
:104D400034214BF2016001F081FB34214BF202600F
:104D500001F07CFB0D214FF4314001F077FB0D2178
:104D60004BF2011001F072FB0D214BF2021001F029
:104D70006DFB34214FF4374001F068FB34214BF2D6
:104D8000017001F063FB34214BF2027001F05EFB15
:104D900000214FF4324001F059FB00214BF2012079
:104DA00001F054FB00214BF2022001F04FFB2421C3
:104DB0004FF4384001F04AFB24214BF6010001F08A
:104DC00045FB24214BF6020001F040FB01214FF48A
:104DD0003F4001F03BFB0F214FF4334000E0FCE388
:104DE00001F034FB0F214BF2013001F02FFB0F21BA
:104DF0004BF2023001F02AFB34214FF4394001F02C
:104E000025FB34214BF6011001F020FB34214BF639
:104E1000021001F01BFB08214FF4354001F016FB96
:104E200008214BF2015001F011FB08214BF2025016
:104E300001F00CFB03214FF4424001F007FB242159
:104E40004FF43A4001F002FB24214BF6012001F01F
:104E5000FDFA24214BF6022001F0F8FA00214FF46C
:104E60003C4001F0F3FA78214BF6014001F0EEFAF4
:104E700000214BF6024001F0E9FA00214FF43D40D9
:104E800001F0E4FA78214BF6015001F0DFFA00213D
:104E90004BF6025001F0DAFA00214FF43E4001F0E7
:104EA000D5FA64214BF6016001F0D0FA00214FF4ED
:104EB000514001F0CBFA33214DF2011001F0C6FA56
:104EC00000214DF2021001F0C1FA34214DF203101D
:104ED00001F0BCFA00214DF2041001F0B7FA3A21BA
:104EE0004DF2051001F0B2FA00214DF2061001F06A
:104EF000ADFA4A214DF2071001F0A8FA00214DF257
:104F0000081001F0A3FA5C214DF2091001F09EFA9D
:104F100000214DF20A1001F099FA81214DF20B1097
:104F200001F094FA00214DF20C1001F08FFAA62145
:104F30004DF20D1001F08AFA00214DF20E1001F031
:104F400085FAE5214DF20F1001F080FA01214DF2B2
:104F5000101001F07BFA13214DF2111001F076FAD6
:104F600001214DF2121001F071FA54214DF213108B
:104F700001F06CFA01214DF2141001F067FA822160
:104F80004DF2151001F062FA01214DF2161001F0F8
:104F90005DFACA214DF2171001F058FA02214DF2C4
:104FA000181001F053FA00214DF2191001F04EFAD9
:104FB00002214DF21A1001F049FA01214DF21B10A5
:104FC00001F044FA02214DF21C1001F03FFA3421A5
:104FD0004DF21D1001F03AFA02214DF21E1001F0BF
:104FE00035FA67214DF21F1001F030FA02214DF21F
:104FF000201001F02BFA84214DF2211001F026FA45
:1050000002214DF2221001F021FAA4214DF22310C9
:1050100001F01CFA02214DF2241001F017FAB72119
:105020004DF2251001F012FA02214DF2261001F086
:105030000DFACF214DF2271001F008FA02214DF2AE
:10504000281001F003FADE214DF2291001F0FEF9DB
:1050500002214DF22A1001F0F9F9F2214DF22B1044
:1050600001F0F4F902214DF22C1001F0EFF9FE21CC
:105070004DF22D1001F0EAF903214DF22E1001F04E
:10508000E5F910214DF22F1001F0E0F903214DF266
:10509000301001F0DBF933214DF2311001F0D6F977
:1050A00003214DF2321001F0D1F96D214DF2331090
:1050B00001F0CCF900214FF4524001F0C7F933213F
:1050C0004DF2012001F0C2F900214DF2022001F061
:1050D000BDF934214DF2032001F0B8F900214DF261
:1050E000042001F0B3F93A214DF2052001F0AEF9A8
:1050F00000214DF2062001F0A9F94A214DF20720C6
:1051000001F0A4F900214DF2082001F09FF95C2183
:105110004DF2092001F09AF900214DF20A2001F028
:1051200095F981214DF20B2001F090F900214DF20B
:105130000C2001F08BF9A6214DF20D2001F086F92B
:1051400000214DF20E2001F081F9E5214DF20F20F2
:1051500001F07CF901214DF2102001F077F91321C3
:105160004DF2112001F072F901214DF2122001F0EF
:105170006DF954214DF2132001F068F901214DF22F
:10518000142001F063F982214DF2152001F05EF93F
:1051900001214DF2162001F059F9CA214DF21720D4
:1051A00001F054F902214DF2182001F04FF90021CD
:1051B0004DF2192001F04AF902214DF21A2001F0B6
:1051C00045F901214DF21B2001F040F902214DF279
:1051D0001C2001F03BF934214DF21D2001F036F97D
:1051E00002214DF21E2001F031F967214DF21F20FE
:1051F00001F02CF902214DF2202001F027F9842141
:105200004DF2212001F022F902214DF2222001F07D
:105210001DF9A4214DF2232001F018F902214DF2CD
:10522000242001F013F9B7214DF2252001F00EF9E9
:1052300002214DF2262001F009F9CF214DF227205D
:1052400001F004F902214DF2282001F0FFF8DE21DF
:105250004DF2292001F0FAF802214DF22A2001F046
:10526000F5F8F2214DF22B2001F0F0F802214DF279
:105270002C2001F0EBF8FE214DF22D2001F0E6F894
:1052800003214DF22E2001F0E1F810214DF22F20E4
:1052900001F0DCF803214DF2302001F0D7F8332182
:1052A0004DF2312001F0D2F803214DF2322001F00D
:1052B000CDF86D214DF2332001F0C8F800214FF4F4
:1052C000534001F0C3F833214DF2013001F0BEF834
:1052D00000214DF2023001F0B9F834214DF20330D3
:1052E00001F0B4F800214DF2043001F0AFF83A219A
:1052F0004DF2053001F0AAF800214DF2063001F020
:10530000A5F84A214DF2073001F0A0F800214DF236
:10531000083001F09BF85C214DF2093001F096F85D
:1053200000214DF20A3001F091F881214DF20B304D
:1053300001F08CF800214DF20C3001F087F8A62125
:105340004DF20D3001F082F800214DF20E3001F0E7
:105350007DF8E5214DF20F3001F078F801214DF292
:10536000103001F073F813214DF2113001F06EF896
:1053700001214DF2123001F069F854214DF2133041
:1053800001F064F801214DF2143001F05FF8822140
:105390004DF2153001F05AF801214DF2163001F0AE
:1053A00055F8CA214DF2173001F050F802214DF2A4
:1053B000183001F04BF800214DF2193001F046F899
:1053C00002214DF21A3001F041F801214DF21B305B
:1053D00001F03CF802214DF21C3001F037F8342185
:1053E0004DF21D3001F032F802214DF21E3001F075
:1053F0002DF867214DF21F3001F028F802214DF2FF
:10540000203001F023F884214DF2213001F01EF804
:1054100002214DF2223001F019F8A4214DF223307F
:1054200001F014F802214DF2243001F00FF8B721F9
:105430004DF2253001F00AF802214DF2263001F03C
:1054400005F8CF214DF2273001F000F802214DF28E
:10545000283000F0FBFFDE214DF2293000F0F6FF8E
:1054600002214DF22A3000F0F1FFF2214DF22B30F3
:1054700000F0ECFF02214DF22C3000F0E7FFFE219E
:105480004DF22D3000F0E2FF03214DF22E3000F0FE
:10549000DDFF10214DF22F3000F0D8FF03214DF237
:1054A000303000F0D3FF33214DF2313000F0CEFF29
:1054B00003214DF2323000F0C9FF6D214DF233303F
:1054C00000F0C4FF00214FF4544000F0BFFF33212F
:1054D0004DF2014000F0BAFF002100E081E34DF2FF
:1054E000024000F0B3FF34214DF2034000F0AEFF64
:1054F00000214DF2044000F0A9FF3A214DF2054091
:1055000000F0A4FF00214DF2064000F09FFF4A2169
:105510004DF2074000F09AFF00214DF2084000F0E4
:1055200095FF5C214DF2094000F090FF00214DF203
:105530000A4000F08BFF81214DF20B4000F086FF06
:1055400000214DF20C4000F081FFA6214DF20D40EC
:1055500000F07CFF00214DF20E4000F077FFE521C6
:105560004DF20F4000F072FF01214DF2104000F0AB
:105570006DFF13214DF2114000F068FF01214DF243
:10558000124000F063FF54214DF2134000F05EFF23
:1055900001214DF2144000F059FF82214DF21540D7
:1055A00000F054FF01214DF2164000F04FFFCA21D8
:1055B0004DF2174000F04AFF02214DF2184000F072
:1055C00045FF00214DF2194000F040FF02214DF24D
:1055D0001A4000F03BFF012100E005E34DF21B40C3
:1055E00000F034FF02214DF21C4000F02FFF342167
:1055F0004DF21D4000F02AFF02214DF21E4000F046
:1056000025FF67214DF21F4000F020FF02214DF2DF
:10561000204000F01BFF84214DF2214000F016FFD6
:1056200002214DF2224000F011FFA4214DF223404F
:1056300000F00CFF02214DF2244000F007FFB721DB
:105640004DF2254000F002FF02214DF2264000F00D
:10565000FDFECF214DF2274000F0F8FE02214DF271
:10566000284000F0F3FEDE214DF2294000F0EEFE6E
:1056700002214DF22A4000F0E9FEF2214DF22B40CA
:1056800000F0E4FE02214DF22C4000F0DFFEFE218E
:105690004DF22D4000F0DAFE03214DF22E4000F0D5
:1056A000D5FE10214DF22F4000F0D0FE03214DF227
:1056B000304000F0CBFE33214DF2314000F0C6FE09
:1056C00003214DF2324000F0C1FE6D214DF2334016
:1056D00000F0BCFE00214FF4554000F0B7FE33212E
:1056E0004DF2015000F0B2FE00214DF2025000F0E8
:1056F000ADFE34214DF2035000F0A8FE00214DF222
:10570000045000F0A3FE3A214DF2055000F09EFE39
:1057100000214DF2065000F099FE4A214DF207504B
:1057200000F094FE00214DF2085000F08FFE5C2145
:105730004DF2095000F08AFE00214DF20A5000F0AF
:1057400085FE81214DF20B5000F080FE00214DF2CC
:105750000C5000F07BFEA6214DF20D5000F076FEBD
:1057600000214DF20E5000F071FEE5214DF20F5078
:1057700000F06CFE01214DF2105000F067FE132185
:105780004DF2115000F062FE01214DF2125000F076
:105790005DFE54214DF2135000F058FE01214DF2F0
:1057A000145000F053FE82214DF2155000F04EFED1
:1057B00001214DF2165000F049FECA214DF217505A
:1057C00000F044FE02214DF2185000F03FFE00218F
:1057D0004DF2195000F03AFE02214DF21A5000F03D
:1057E00035FE01214DF21B5000F030FE02214DF23A
:1057F0001C5000F02BFE34214DF21D5000F026FE0F
:1058000002214DF21E5000F021FE67214DF21F5083
:1058100000F01CFE02214DF2205000F017FE842102
:105820004DF2215000F012FE02214DF2225000F004
:105830000DFEA4214DF2235000F008FE02214DF28E
:10584000245000F003FEB7214DF2255000F0FEFD7C
:1058500002214DF2265000F0F9FDCF214DF22750E4
:1058600000F0F4FD02214DF2285000F0EFFDDE21A2
:105870004DF2295000F0EAFD02214DF22A5000F0CD
:10588000E5FDF2214DF22B5000F0E0FD02214DF23A
:105890002C5000F0DBFDFE214DF22D5000F0D6FD26
:1058A00003214DF22E5000F0D1FD10214DF22F506A
:1058B00000F0CCFD03214DF2305000F0C7FD332144
:1058C0004DF2315000F0C2FD03214DF2325000F094
:1058D000BDFD6D214DF2335000F0B8FD00214FF4B5
:1058E000564000F0B3FD33214DF2016000F0AEFDF3
:1058F00000214DF2026000F0A9FD34214DF2036059
:1059000000F0A4FD00214DF2046000F09FFD3A215B
:105910004DF2056000F09AFD00214DF2066000F0A6
:1059200095FD4A214DF2076000F090FD00214DF2F7
:10593000086000F08BFD5C214DF2096000F086FDEF
:1059400000214DF20A6000F081FD81214DF20B60D3
:1059500000F07CFD00214DF20C6000F077FDA621E7
:105960004DF20D6000F072FD00214DF20E6000F06E
:105970006DFDE5214DF20F6000F068FD01214DF253
:10598000106000F063FD13214DF2116000F05EFD28
:1059900001214DF2126000F059FD54214DF21360C7
:1059A00000F054FD01214DF2146000F04FFD822102
:1059B0004DF2156000F04AFD01214DF2166000F035
:1059C00045FDCA214DF2176000F040FD02214DF265
:1059D000186000F03BFD00214DF2196000F036FD2B
:1059E00002214DF21A6000F031FD01214DF21B60E1
:1059F00000F02CFD02214DF21C6000F027FD342147
:105A00004DF21D6000F022FD02214DF21E6000F0FB
:105A10001DFD67214DF21F6000F018FD02214DF2BF
:105A2000206000F013FD84214DF2216000F00EFD96
:105A300002214DF2226000F009FDA4214DF2236005
:105A400000F004FD02214DF2246000F0FFFCB721BC
:105A50004DF2256000F0FAFC02214DF2266000F0C4
:105A6000F5FCCF214DF2276000F0F0FC02214DF251
:105A7000286000F0EBFCDE214DF2296000F0E6FC2E
:105A800002214DF22A6000F0E1FCF2214DF22B6080
:105A900000F0DCFC02214DF22C6000F0D7FCFE216E
:105AA0004DF22D6000F0D2FC03214DF22E6000F08B
:105AB000CDFC10214DF22F6000F0C8FC03214DF207
:105AC000306000F0C3FC33214DF2316000F0BEFCC9
:105AD00003214DF2326000F0B9FC6D214DF23360CC
